:020000040800F2
:1000000000000120912B00080120000803200008B7
:100010000520000807200008092000080000000053
:100020000000000000000000000000000B2000089D
:100030000D200008000000000F200008112000081B
:10004000D92B0008D92B0008D92B0008D92B000880
:10005000D92B0008D92B0008D92B0008D92B000870
:10006000D92B0008D92B0008D92B0008D92B000860
:100070001920000829200008D92B0008D92B0008D6
:10008000D92B0008D92B0008D92B0008D92B000840
:10009000D92B0008D92B0008D92B0008D92B000830
:1000A000D92B0008D92B0008D92B0008D92B000820
:1000B000D92B0008D92B0008D92B0008D92B000810
:1000C000D92B0008D92B0008D92B0008D92B000800
:1000D000D92B0008392000084920000859200008C1
:1000E000D92B0008D92B0008D92B0008D92B0008E0
:1000F000D92B0008D92B0008D92B0008D92B0008D0
:10010000D92B0008D92B0008D92B0008D92B0008BF
:100110006920000879200008D92B000889200008F0
:10012000D92B0008D92B0008D92B0008D92B00089F
:1001300000000000000000000000000000000000BF
:1001400000000000000000000000000000000000AF
:10015000000000000000000000000000000000009F
:10016000000000000000000000000000000000008F
:10017000000000000000000000000000000000007F
:10018000000000000000000000000000000000006F
:10019000000000000000000000000000000000005F
:1001A000000000000000000000000000000000004F
:1001B000000000000000000000000000000000003F
:1001C000000000000000000000000000000000002F
:1001D000000000000000000000000000000000001F
:0401E0005FF8E0F1F3
:1001E80010B5054C237833B9044B13B10448AFF369
:1001F80000800123237010BDC0090020000000000A
:10020800B8B4000808B5034B1BB103490348AFF362
:10021800008008BD00000000C4090020B8B4000830
:1002280081F0004102E000BF83F0004330B54FEA9F
:1002380041044FEA430594EA050F08BF90EA020F0C
:100248001FBF54EA000C55EA020C7FEA645C7FEA9F
:10025800655C00F0E2804FEA5454D4EB5555B8BFC2
:100268006D420CDD2C4480EA020281EA030382EA33
:10027800000083EA010180EA020281EA0303362DC5
:1002880088BF30BD11F0004F4FEA01314FF4801C98
:100298004CEA113102D0404261EB410113F0004FAA
:1002A8004FEA03334CEA133302D0524263EB430361
:1002B80094EA050F00F0A780A4F10104D5F1200EFF
:1002C8000DDB02FA0EFC22FA05F2801841F100015A
:1002D80003FA0EF2801843FA05F359410EE0A5F12E
:1002E80020050EF1200E012A03FA0EFC28BF4CF05F
:1002F800020C43FA05F3C01851EBE37101F0004515
:1003080007D54FF0000EDCF1000C7EEB00006EEB21
:100318000101B1F5801F1BD3B1F5001F0CD34908AB
:100328005FEA30004FEA3C0C04F101044FEA445202
:1003380012F5800F80F09A80BCF1004F08BF5FEA89
:10034800500C50F1000041EB045141EA050130BD69
:100358005FEA4C0C404141EB0101013C28BFB1F57B
:10036800801FE9D291F0000F04BF01460020B1FAC6
:1003780081F308BF2033A3F10B03B3F120020CDA99
:100388000C3208DD02F1140CC2F10C0201FA0CF077
:1003980021FA02F10CE002F11402D8BFC2F1200CDC
:1003A80001FA02F120FA0CFCDCBF41EA0C01904092
:1003B800E41AA2BF01EB0451294330BD6FEA0404DB
:1003C8001F3C1CDA0C340EDC04F11404C4F12002C6
:1003D80020FA04F001FA02F340EA030021FA04F3D8
:1003E80045EA030130BDC4F10C04C4F1200220FA2F
:1003F80002F001FA04F340EA0300294630BD21FA6D
:1004080004F0294630BD94F0000F83F4801306BF32
:1004180081F480110134013D4EE77FEA645C18BF26
:100428007FEA655C29D094EA050F08BF90EA020FBD
:1004380005D054EA000C04BF1946104630BD91EAB5
:10044800030F1EBF0021002030BD5FEA545C05D1B8
:100458004000494128BF41F0004130BD14F58004F7
:100468003CBF01F5801130BD01F0004545F0FE416B
:1004780041F470014FF0000030BD7FEA645C1ABFA0
:10048800194610467FEA655C1CBF0B46024650EAD7
:10049800013406BF52EA033591EA030F41F4002103
:1004A80030BD00BF90F0000F04BF0021704730B589
:1004B8004FF4806404F132044FF000054FF000015E
:1004C80050E700BF90F0000F04BF0021704730B51F
:1004D8004FF4806404F1320410F0004548BF4042F4
:1004E8004FF000013EE700BF42004FEAE2014FEA49
:1004F80031014FEA02701FBF12F07F4393F07F4F24
:1005080081F06051704732F07F4208BF704793F026
:100518007F4F04BF41F40021704730B54FF4607439
:1005280001F0004521F000411CE700BF50EA01023C
:1005380008BF704730B54FF000050AE050EA0102E5
:1005480008BF704730B511F0004502D5404261EB55
:1005580041014FF4806404F132045FEA915C3FF496
:10056800D8AE4FF003025FEADC0C18BF03325FEA33
:10057800DC0C18BF033202EBDC02C2F1200300FAE4
:1005880003FC20FA02F001FA03FE40EA0E0021FA09
:1005980002F11444BDE600BF4FEA410212F5001211
:1005A80015D211D56FF47873B3EB625212D94FEAB2
:1005B800C12343F0004343EA505311F0004F23FA9C
:1005C80002F018BF404270474FF00000704750EAF1
:1005D800013005D111F0004008BF6FF000407047AE
:1005E8004FF00000704700BF80F0004002E000BFFD
:1005F80081F0004142001FBF5FEA410392EA030F06
:100608007FEA226C7FEA236C6AD04FEA1262D2EB4F
:100618001363C1BFD218414048404140B8BF5B4254
:10062800192B88BF704710F0004F40F4000020F0ED
:100638007F4018BF404211F0004F41F4000121F003
:100648007F4118BF494292EA030F3FD0A2F101024D
:1006580041FA03FC10EB0C00C3F1200301FA03F18B
:1006680000F0004302D5494260EB4000B0F5000FAE
:1006780013D3B0F1807F06D340084FEA310102F16D
:100688000102FE2A51D2B1F1004F40EBC25008BF1F
:1006980020F0010040EA03007047490040EB0000E9
:1006A800013A28BFB0F5000FEDD2B0FA80FCACF1EA
:1006B800080CB2EB0C0200FA0CF0AABF00EBC25017
:1006C80052421843BCBFD0401843704792F0000F05
:1006D80081F4000106BF80F400000132013BB5E758
:1006E8004FEA41037FEA226C18BF7FEA236C21D0CE
:1006F80092EA030F04D092F0000F08BF0846704733
:1007080090EA010F1CBF0020704712F07F4F04D100
:10071800400028BF40F00040704712F100723CBF13
:1007280000F50000704700F0004343F0FE4040F43D
:10073800000070477FEA226216BF08467FEA2363FB
:100748000146420206BF5FEA412390EA010F40F4E6
:10075800800070474FF0000304E000BF10F0004332
:1007680048BF40425FEA000C08BF704743F0964319
:1007780001464FF000001CE050EA010208BF704734
:100788004FF000030AE000BF50EA010208BF7047BB
:1007980011F0004302D5404261EB41015FEA010CD0
:1007A80002BF84460146002043F0B64308BFA3F1C8
:1007B8008053A3F50003BCFA8CF2083AA3EBC253AA
:1007C80010DB01FA02FC634400FA02FCC2F12002C9
:1007D800BCF1004F20FA02F243EB020008BF20F000
:1007E8000100704702F1200201FA02FCC2F1200266
:1007F80050EA4C0021FA02F243EB020008BF20EA5B
:10080800DC707047844641EA000313F0030349D1C2
:10081800403A23D30B6803604B6843608B6883605E
:10082800CB68C3600B6903614B6943618B69836162
:10083800CB69C3610B6A03624B6A43628B6A83624A
:10084800CB6AC3620B6B03634B6B43638B6B836332
:10085800CB6BC36340304031403ADBD230320BD3EC
:100868000B6803604B6843608B688360CB68C36028
:1008780010301031103AF3D20C3205D351F8043B42
:1008880040F8043B043AF9D2043208D0D2071CBF1E
:1008980011F8013B00F8013B01D30B880380604647
:1008A800704700BF082A13D38B07B1D010F0030399
:1008B800AED0C3F10403D21ADB071CBF11F8013B09
:1008C80000F8013BA4D331F8023B20F8023B9FE734
:1008D800043AD9D3013A11F8013B00F8013BF9D2A7
:1008E8000B7803704B7843708B7883706046704741
:1008F80070B54FF0FF0C4CF4E06C1CEA11541DBFAE
:100908001CEA135594EA0C0F95EA0C0F00F0DEF878
:100918002C4481EA030621EA4C5123EA4C5350EA5D
:10092800013518BF52EA033541F4801143F48013AE
:1009380038D0A0FB02CE4FF00005E1FB02E506F03F
:100948000042E0FB03E54FF00006E1FB03569CF094
:10095800000F18BF4EF0010EA4F1FF04B6F5007F9A
:1009680064F5407404D25FEA4E0E6D4146EB06060C
:1009780042EAC62141EA55514FEAC52040EA5E5095
:100988004FEACE2EB4F1FD0C88BFBCF5E06F1ED83F
:10099800BEF1004F08BF5FEA500E50F1000041EB76
:1009A800045170BD06F0004646EA010140EA020023
:1009B80081EA0301B4EB5C04C2BFD4EB0C0541EA45
:1009C800045170BD41F480114FF0000E013C00F35A
:1009D800AB8014F1360FDEBF002001F0004170BD7E
:1009E800C4F10004203C35DA0C341BDC04F1140497
:1009F800C4F1200500FA05F320FA04F001FA05F223
:100A080040EA020001F0004221F0004110EBD370EF
:100A180021FA04F642EB06015EEA430E08BF20EA1B
:100A2800D37070BDC4F10C04C4F1200500FA04F3BE
:100A380020FA05F001FA04F240EA020001F0004150
:100A480010EBD37041F100015EEA430E08BF20EAC3
:100A5800D37070BDC4F1200500FA05F24EEA020E0B
:100A680020FA04F301FA05F243EA020321FA04F03A
:100A780001F0004121FA04F220EA020000EBD370F1
:100A88005EEA430E08BF20EAD37070BD94F0000FF1
:100A98000FD101F00046400041EB010111F4801F25
:100AA80008BF013CF7D041EA060195F0000F18BFD6
:100AB800704703F00046520043EB030313F4801F12
:100AC80008BF013DF7D043EA0603704794EA0C0FCC
:100AD8000CEA135518BF95EA0C0F0CD050EA4106E2
:100AE80018BF52EA4306D1D181EA030101F000415F
:100AF8004FF0000070BD50EA410606BF1046194687
:100B080052EA430619D094EA0C0F02D150EA013692
:100B180013D195EA0C0F05D152EA03361CBF1046D3
:100B280019460AD181EA030101F0004141F0FE4172
:100B380041F470014FF0000070BD41F0FE4141F4F6
:100B4800780170BD70B54FF0FF0C4CF4E06C1CEAF6
:100B580011541DBF1CEA135594EA0C0F95EA0C0FAB
:100B680000F0A7F8A4EB050481EA030E52EA033566
:100B78004FEA013100F088804FEA03334FF0805587
:100B880045EA131343EA12634FEA022245EA1115B4
:100B980045EA10654FEA00260EF000419D4208BF65
:100BA800964244F1FD0404F5407402D25B084FEA12
:100BB8003202B61A65EB03055B084FEA32024FF4BE
:100BC80080104FF4002CB6EB020E75EB030E22BF1B
:100BD800B61A754640EA0C005B084FEA3202B6EBDB
:100BE800020E75EB030E22BFB61A754640EA5C008A
:100BF8005B084FEA3202B6EB020E75EB030E22BF1A
:100C0800B61A754640EA9C005B084FEA3202B6EB1A
:100C1800020E75EB030E22BFB61A754640EADC00D9
:100C280055EA060E18D04FEA051545EA16754FEA3B
:100C380006164FEAC30343EA52734FEAC2025FEA59
:100C48001C1CC0D111F4801F0BD141EA00014FF0E8
:100C580000004FF0004CB6E711F4801F04BF0143B9
:100C68000020B4F1FD0C88BFBCF5E06F3FF6AFAED5
:100C7800B5EB030C04BFB6EB020C5FEA500C50F165
:100C8800000041EB045170BD0EF0004E4EEA1131E8
:100C980014EB5C04C2BFD4EB0C0541EA045170BDEF
:100CA80041F480114FF0000E013C90E645EA060E33
:100CB8008DE60CEA135594EA0C0F08BF95EA0C0F61
:100CC8003FF43BAF94EA0C0F0AD150EA01347FF4A9
:100CD80034AF95EA0C0F7FF425AF104619462CE780
:100CE80095EA0C0F06D152EA03353FF4FDAE1046E3
:100CF800194622E750EA410618BF52EA43067FF434
:100D0800C5AE50EA41047FF40DAF52EA43057FF4C3
:100D1800EBAE12E74FF0FF3C06E000BF4FF0010CCE
:100D280002E000BF4FF0010C4DF804CD4FEA410C32
:100D38007FEA6C5C4FEA430C18BF7FEA6C5C1BD0FF
:100D480001B050EA410C0CBF52EA430C91EA030F80
:100D580002BF90EA020F0020704710F1000F91EADD
:100D6800030F58BF994208BF90422CBFD8176FEAAB
:100D7800E37040F0010070474FEA410C7FEA6C5C79
:100D880002D150EA013C07D14FEA430C7FEA6C5C80
:100D9800D6D152EA033CD3D05DF8040B704700BFAC
:100DA8008446104662468C461946634600E000BFFA
:100DB80001B5FFF7B7FF002848BF10F1000F01BDCC
:100DC8004DF808EDFFF7F4FF0CBF012000205DF897
:100DD80008FB00BF4DF808EDFFF7EAFF34BF01201C
:100DE80000205DF808FB00BF4DF808EDFFF7E0FFB5
:100DF80094BF012000205DF808FB00BF4DF808ED06
:100E0800FFF7CEFF94BF012000205DF808FB00BF6C
:100E18004DF808EDFFF7C4FF34BF012000205DF84E
:100E280008FB00BF4FEA410C7FEA6C5C02D150EA34
:100E3800013C0AD14FEA430C7FEA6C5C02D152EACA
:100E4800033C02D14FF0000070474FF0010070479B
:100E580053B94AB9002908BF00281CBF4FF0FF3119
:100E68004FF0FF3000F076B9ADF1080C6DE904CE13
:100E780000F006F8DDF804E0DDE9022304B070476D
:100E88002DE9F047089E0D4604468846002B4DD1B3
:100E98008A42944668D9B2FA82F252B101FA02F350
:100EA800C2F1200120FA01F10CFA02FC41EA030820
:100EB80094404FEA1C41B8FBF1F71FFA8CFE01FB86
:100EC800178807FB0EF0230C43EA084398420AD917
:100ED8001CEB030307F1FF3580F01E81984240F2B6
:100EE8001B81023F63441B1AB3FBF1F001FB103373
:100EF80000FB0EFEA4B244EA0344A6450AD91CEB43
:100F0800040400F1FF3380F00981A64540F2068110
:100F1800644402380021A4EB0E0440EA07401EB1E5
:100F28000023D440C6E90043BDE8F0878B4208D9C6
:100F3800002E00F0EE800021C6E900050846BDE855
:100F4800F087B3FA83F100294AD1AB4202D3824237
:100F580000F2FC80841A65EB030301209846002EFA
:100F6800E2D0C6E90048DFE702B9FFDEB2FA82F252
:100F7800002A40F09180A1EB0C0001214FEA1C47A8
:100F88001FFA8CFEB0FBF7F307FB1300250C45EAAC
:100F980000450EFB03F0A84208D91CEB050503F138
:100FA800FF3802D2A84200F2CE8043462D1AB5FB84
:100FB800F7F007FB10550EFB00FEA4B244EA054407
:100FC800A64508D91CEB040400F1FF3502D2A6455A
:100FD80000F2B6802846A4EB0E0440EA03409EE7E0
:100FE800C1F120078B4022FA07FC4CEA030C25FAD2
:100FF80007FA4FEA1C49BAFBF9F820FA07F309FB8C
:1010080018AA8D401FFA8CFE1D4300FA01F308FB55
:101018000EF02C0C44EA0A44A04202FA01F20BD961
:101028001CEB040408F1FF3A80F08880A04240F2EB
:101038008580A8F102086444241AB4FBF9F009FB7E
:10104800104400FB0EFEADB245EA0444A64508D99B
:101058001CEB040400F1FF356CD2A6456AD90238AE
:10106800644440EA0840A0FB0295A4EB0E04AC429D
:10107800C846AE4656D353D0002E69D0B3EB08020B
:1010880064EB0E0422FA01F304FA07F71F43CC407D
:10109800C6E90074002147E70CFA02FCC2F12001FE
:1010A80025FA01F34FEA1C4720FA01F195400D4358
:1010B800B3FBF7F107FB11331FFA8CFE280C40EA4B
:1010C800034001FB0EF3834204FA02F408D91CEB37
:1010D800000001F1FF382FD283422DD90239604434
:1010E800C01AB0FBF7F307FB1300ADB245EA0045A1
:1010F80003FB0EF0A84208D91CEB050503F1FF38E5
:1011080016D2A84214D9023B6544281A43EA014181
:1011180038E73146304607E72F46E4E61846F9E651
:101128004B45A9D2B9EB020865EB0C0E0138A3E7D1
:101138004346EAE7284694E74146D1E7D0467BE7AD
:101148006444023847E7023B65442FE7084606E750
:101158003146E9E6704700BF013803281FD8DFE8A9
:1011680000F0020910170F4B1B68586A00B20022E2
:101178005A6270470C4B1B68586A00B200225A62C8
:1011880070470A4B1B68586A00B200225A627047BF
:10119800074B1B68586A00B200225A627047002049
:1011A800704700BFF80A0020400B0020880B002081
:1011B800600C0020000000002DE9F0472E4B1C8831
:1011C800241A24B20C80DFF8B490B9F90050601BDF
:1011D800FFF778F922A3D3E90023FFF789FB064636
:1011E8000F462046FFF76EF91FA3D3E90023FFF748
:1011F8007FFB02460B4630463946FFF717F806468E
:101208000F462846FFF7AAFA0146FFF7F3F980468A
:101218002046FFF7A3FA4146FFF7EAF98046DFF8D0
:1012280060A0BAF90000FFF799FA4146FFF7E2F922
:10123800FFF75AF90EA3D3E90023FFF759FB02463B
:101248000B4630463946FEF7F1FFFFF7A5F9AAF835
:101258000050A9F8004000B2BDE8F087AFF3008065
:101268007B14AE47E17AEC3F48E17A14AE47E13FA0
:101278007B14AE47E17A743F00000020DC090020AF
:10128800E4090020000000002DE9F0472E4B1C88DF
:10129800241A24B20C80DFF8B490B9F90050601B0E
:1012A800FFF710F922A3D3E90023FFF721FB064635
:1012B8000F462046FFF706F91FA3D3E90023FFF7DF
:1012C80017FB02460B4630463946FEF7AFFF064687
:1012D8000F462846FFF742FA0146FFF78BF980468A
:1012E8002046FFF73BFA4146FFF782F98046DFF8D0
:1012F80060A0BAF90000FFF731FA4146FFF77AF922
:10130800FFF7F2F80EA3D3E90023FFF7F1FA02463C
:101318000B4630463946FEF789FFFFF73DF9AAF834
:101328000050A9F8004000B2BDE8F087AFF3008094
:101338007B14AE47E17AEC3F48E17A14AE47E13FCF
:101348007B14AE47E17A743F00000020DE090020DC
:10135800E6090020000000002DE9F0472E4B1C880C
:10136800241A24B20C80DFF8B490B9F90050601B3D
:10137800FFF7A8F822A3D3E90023FFF7B9FA064636
:101388000F462046FFF79EF81FA3D3E90023FFF777
:10139800AFFA02460B4630463946FEF747FF064687
:1013A8000F462846FFF7DAF90146FFF723F980468A
:1013B8002046FFF7D3F94146FFF71AF98046DFF8D0
:1013C80060A0BAF90000FFF7C9F94146FFF712F922
:1013D800FFF78AF80EA3D3E90023FFF789FA02463C
:1013E8000B4630463946FEF721FFFFF7D5F8AAF835
:1013F8000050A9F8004000B2BDE8F087AFF30080C4
:101408007B14AE47E17AEC3F48E17A14AE47E13FFE
:101418007B14AE47E17A743F00000020E009002009
:10142800E8090020000000002DE9F0472E4B1C8839
:10143800241A24B20C80DFF8B490B9F90050601B6C
:10144800FFF740F822A3D3E90023FFF751FA064635
:101458000F462046FFF736F81FA3D3E90023FFF70E
:1014680047FA02460B4630463946FEF7DFFE064687
:101478000F462846FFF772F90146FFF7BBF880468A
:101488002046FFF76BF94146FFF7B2F88046DFF8D0
:1014980060A0BAF90000FFF761F94146FFF7AAF822
:1014A800FFF722F80EA3D3E90023FFF721FA02463B
:1014B8000B4630463946FEF7B9FEFFF76DF8AAF835
:1014C8000050A9F8004000B2BDE8F087AFF30080F3
:1014D8007B14AE47E17AEC3F48E17A14AE47E13F2E
:1014E8007B14AE47E17A743F00000020E209002037
:1014F800EA09002000B585B0002301930293039305
:101508003548364A02604FF48072826001220273C5
:1015180003754FF44022C26143600623036101F062
:1015280085FC002842D12E4A536843F0E06343F417
:10153800802353600223019301220292039301A99D
:10154800254801F0A5FB002833D10323019302238A
:10155800029301A9204801F09BFB68BB0423019377
:101568000323029301A91C4801F092FB38BB052311
:101578000193042302930DEB0301174801F088FB44
:1015880000BB062301930523029301A9124801F029
:101598007FFBD0B9082301930623029301A90E48C3
:1015A80001F076FBA0B905B05DF804FB00F00CFB78
:1015B800B9E700F009FBC8E700F006FBCEE700F04A
:1015C80003FBD4E700F000FBDBE700F0FDFAE1E7FE
:1015D80000F0FAFAE7E700BFEC0900200024014018
:1015E8000000014010B588B00023049305930693CA
:1015F80007930268204B9A4201D008B010BD03F54A
:101608006C439A6942F400729A619A6902F4007212
:101618000092009A9A6942F010029A619A6902F05F
:1016280010020192019A9A6942F004029A619A6939
:1016380002F004020292029A9A6942F008029A6140
:101648009B6903F008030393039B0123049303247A
:10165800059404A9094801F0D1FF7C23049305945B
:1016680004A9074801F0CAFF0494059404A9054891
:1016780001F0C4FFC1E700BF002401400010014091
:1016880000080140000C014000B583B00E4B5A69B8
:1016980042F001025A615B6903F001030193019B67
:1016A800002211460C2001F067FC0C2001F09CFC84
:1016B800002211460D2001F05FFC0D2001F094FC82
:1016C80003B05DF804FB00BF001002402DE9F043B1
:1016D8008BB000240694079408940994464B9A69A1
:1016E80042F080029A619A6902F080020092009AA0
:1016F8009A6942F010029A619A6902F01002019206
:10170800019A9A6942F004029A619A6902F0040205
:101718000292029A9A6942F008029A619A6902F062
:1017280008020392039A9A6942F040029A619A6900
:1017380002F040020492049A9A6942F020029A61E7
:101748009B6903F020030593059BDFF8B0902246C0
:101758004021484602F072F8294F22464FF487711B
:10176800384602F06BF8DFF89C8022468B21404611
:1017780002F064F84023069301260796022508958F
:10178800099506A9484601F039FF0E2306930796E6
:101798000895099506A9384601F030FF802306937D
:1017A8000795099506A9184801F028FF4FF480739A
:1017B800069307960894099506A9384601F01EFF76
:1017C8004FF4007306930794089406A9384601F06D
:1017D80015FF8B23069307960895099506A9404699
:1017E80001F00CFF0721204602F038F802F040F81B
:1017F8000BB0BDE8F08300BF00100240001C0140A0
:1018080000100140001401400008014008B50B48D1
:101818000B4B03600B4B436000238360C3604FF4A2
:101828008042026143618361C361036202F028F868
:1018380000B908BD00F0C8F9FBE700BF1C0A00208A
:1018480000540040A086010010B588B0002304931E
:101858000593069307930368224A934204D0224AC9
:1018680093421FD008B010BD204CA36943F0080371
:10187800A361A36903F008030093009BC0230493AA
:10188800122305930323079304A9194801F0B6FE10
:10189800E36943F40013E361E36903F4001301937C
:1018A800019BDFE7114CA36943F00803A361A36917
:1018B80003F008030293029B4FF44063049312233E
:1018C80005930323079304A9094801F097FEE369E8
:1018D80043F48003E361E36903F480030393039B08
:1018E800C0E700BF0054004000580040001002400C
:1018F800000C014008B509220249034803F055FAD3
:1019080008BD00BF6CB50008B80D002000B583B055
:1019180001904FF0FF33012201A9034803F0D9F9E0
:10192800019803B05DF804FB300D002070470000FB
:101938000268364B9A4200D07047F0B585B0012056
:10194800FFF7D8FF0120FFF707FC07460220FFF743
:1019580003FC06460320FFF7FFFB05460420FFF7BC
:10196800FBFB044603A93846FFF726FCC3B2284A06
:1019780010780344DBB21370642B2ED9134664220B
:101988001A7002A93046FFF77FFC224A13780344F5
:10199800DBB21370642B26D9134664221A7001A98E
:1019A8002846FFF7D9FC1C4A13780344DBB21370AE
:1019B800642B1ED9134664221A7069462046FFF725
:1019C80033FD164A13781844C0B21070642816D92B
:1019D800134664221A7005B0F0BD002BD1D10C4B10
:1019E80001221A70CDE7002BD9D10A4B01221A70B7
:1019F800D5E7002BE1D1084B01221A70DDE700285A
:101A0800E9D1064B01221A70E5E700BF0014004037
:101A1800F00A0020F10A0020F20A0020F30A002050
:101A2800F0B589B004460268594B9A4205D022683D
:101A3800584B9A422ED009B0F0BD574D2A7A6B7A8E
:101A480003EB0221554880FB0101891054480160CD
:101A5800544803F02DFDEB782A796979A879EE7955
:101A68002F7A95F809C095F80AE0CDF81CE0CDF872
:101A780018C0059704960390029101920093AB78E1
:101A88006A782978484803F013FD00232B606B60BF
:101A9800AB60CCE7454B1B78732B0FD0652BCAD1B5
:101AA800424B5B78312B5DD0302B66D04FF47A7384
:101AB80005223E493E4803F00CF9BCE73B4B5B78F6
:101AC800303B092B09D8DFE803F047050E12161E34
:101AD80023303D42002000F051FA642200213348AF
:101AE80003F094FCA7E7572000F09AF9F5E70120E6
:101AF80000F044FAF1E72D4803F03CFD2D4A138825
:101B08000A331380E9E72B4A13880A3B1380E4E77A
:101B1800012000F0F5F9022000F0F2F9032000F0AE
:101B2800B1F9042000F0AEF9D7E7032000F0E8F996
:101B3800042000F0E5F9012000F0A4F9022000F0EB
:101B4800A1F9CAE71C4B1B683A229A63C5E71A4BEE
:101B58001B685B229A63C0E709221849184803F0FA
:101B68004BF9BAE72021174801F06EFE572000F024
:101B780057F9012000F002FA98E72021114801F0F6
:101B880063FE572000F04CF9012000F0F7F98DE7CB
:101B98000048004000380140800A002067666666F9
:101BA800700A0020D0B40008E4B400088C0A0020B1
:101BB800300D002000000020D00B00206CB500087C
:101BC800B80D00200018014072B6FEE700B597B0C6
:101BD800282200210CA803F019FC0023079308937E
:101BE80009930A930B930193029303930493059328
:101BF800069301220C924FF480330D931092022227
:101C0800139214934FF4E01315930CA801F02CFFD2
:101C1800C8B90F23079302210891002309934FF4B1
:101C280080620A920B9307A802F05EF968B9022352
:101C380001934FF40043039301A802F031FA30B93D
:101C480017B05DF804FBFFF7BFFFFFF7BDFFFFF715
:101C5800BBFF000000B599B000F0E2FFFFF7B6FF48
:101C6800FFF734FDFFF746FCFFF7D0FD00F06EFCF0
:101C780000F06EFA00F0EAFC00F04EFD00F09CFA6D
:101C880000F0C2FAFFF700FD00F0BCFD00F0D4FD43
:101C980000F0ECFD00F082FD00F09AFD4F4D0821A8
:101CA800284602F0CBFD0C21284602F0C7FD4C4C1B
:101CB8000821204602F0C2FD0C21204602F0BEFD9C
:101CC800484802F00DFB3C21284602F031FE3C2139
:101CD800454802F02DFE3C21204602F029FE3C2119
:101CE800424802F025FE2A6828231364D363226839
:101CF800D36313643E4C0421204602F09FFD236801
:101D080029229A633B4B14AC0FCB07C4238009AC40
:101D1800394D0FCD0FC40FCD0FC495E8070003C48C
:101D28002280364B05AC0FCB07C424F8023B1B0CB2
:101D38002370334B01AC0FCB07C4237014A803F0F6
:101D480021FC304C4FF47A7382B214A9204602F079
:101D5800C0FF642000F088FF09A803F013FC4FF4CB
:101D68007A7382B209A9204602F0B3FF642000F01A
:101D78007BFF05A803F006FC4FF47A7382B205A92D
:101D8800204602F0A6FF642000F06EFF01A803F0D1
:101D9800F9FB4FF47A7382B201A9204602F099FF49
:101DA800194803F0E7FB4FF47A73092217491848DA
:101DB80002F08FFFC82000F057FF164C0A22214678
:101DC800154803F084FA032221460E4803F07FFAEF
:101DD8000C2212490E4803F0D3FAEEE7F80A002065
:101DE800880B0020180C0020400B0020600C0020FD
:101DF800D00B002010B5000820B500084CB500082D
:101E08005CB50008300D002008B500086CB5000866
:101E1800B80D00208C0A0020740D0020800A0020D4
:101E280010B5164C00220221204601F007FD0022C1
:101E38000421204601F002FD00224021104801F053
:101E4800FDFC00220821204601F0F8FC04F580641E
:101E580000220121204601F0F1FC002280212046C9
:101E680001F0ECFC00220821204601F0E7FC0022EA
:101E78000221204601F0E2FC10BD00BF0010014025
:101E8800001C014010B5013803280ED8DFE800F027
:101E9800020E1925174C00220221204601F0CEFC23
:101EA80001220421204601F0C9FC10BD0022402176
:101EB800114801F0C3FC012208210E4801F0BEFCC4
:101EC800F3E70E4C00220121204601F0B7FC012265
:101ED8008021204601F0B2FCE7E7084C00220821E7
:101EE800204601F0ABFC01220221204601F0A6FCAD
:101EF800DBE700BF00100140001C01400014014056
:101F080010B5013803280ED8DFE800F0020E1925B5
:101F1800174C01220221204601F090FC00220421E6
:101F2800204601F08BFC10BD01224021114801F030
:101F380085FC002208210E4801F080FCF3E70E4CD6
:101F480001221146204601F079FC0022802120461A
:101F580001F074FCE7E7084C01220821204601F053
:101F68006DFC00220221204601F068FCDBE700BF7F
:101F780000100140001C01400014014008B560B980
:101F88000120FFF77FFF0220FFF77CFF0320FFF708
:101F980079FF0420FFF776FF08BD0120FFF7B0FFA7
:101FA8000220FFF7ADFF0320FFF7AAFF0420FFF789
:101FB800A7FFF1E782B00E4B9A6942F001029A61DD
:101FC8009A6902F001020092009ADA6942F080529E
:101FD800DA61DB6903F080530193019B054A53687A
:101FE80023F0E06343F00073536002B0704700BF12
:101FF8000010024000000140FEE7FEE7FEE7FEE7B2
:10200800FEE770477047704708B500F01BFE08BD33
:1020180008B5024801F07CF908BD00BFEC0C0020AF
:1020280008B5024801F074F908BD00BFA80C0020EB
:1020380008B5024802F0F2FF08BD00BF300D0020CD
:1020480008B5024802F0EAFF08BD00BF740D002081
:1020580008B5024802F0E2FF08BD00BFB80D002035
:1020680008B5024802F0DAFF08BD00BFFC0D0020E9
:1020780008B5024802F0D2FF08BD00BF400E00209C
:1020880008B5024802F06CF908BD00BF180C002022
:102098000120704708B503F08FF9162303604FF04D
:1020A800FF3008BD08B54FF0FF31FFF7F3FFFEE73B
:1020B80070B50C461646002506E0AFF300802146B1
:1020C80001F8010B01350C46B542F6DB304670BD10
:1020D80070B50C461646002504E014F8010BFFF70E
:1020E80015FC0135B542F8DB304670BD4FF0FF30C6
:1020F80070474FF400534B60002070470120704731
:102108000020704710B503460C4A0D490D48006879
:1021180040B10C4800680344521A934206D8094A51
:10212800136010BD0748084C0460F2E703F044F957
:102138000C2303604FF0FF30F3E700BF00000120DD
:1021480000040000F40A0020D00E002070470000B0
:1021580000B58DB02422002103A803F057F900230D
:102168000193029313484FF0804202604722426075
:1021780083604FF6FF72C26003618023836103238B
:10218800039301230593099303A902F04BFA50B96D
:1021980000230193029301A9064802F02FFC28B9F5
:1021A8000DB05DF804FBFFF70FFDF1E7FFF70CFD3D
:1021B800F6E700BF400B002000B583B00023009372
:1021C80001930F480F4A02604722426083604FF62E
:1021D800FF72C260836102F0CDF950B90023009309
:1021E80001936946064802F009FC28B903B05DF876
:1021F80004FBFFF7E9FCF1E7FFF7E6FCF6E700BFB1
:10220800180C00200014004000B58DB024220021D5
:1022180003A803F0FBF80023019302931148124A24
:102228000260436083604FF6FF72C26003614361DE
:102238008361012303930593099303A902F0F2F93B
:1022480050B900230193029301A9064802F0D6FB76
:1022580028B90DB05DF804FBFFF7B6FCF1E7FFF70E
:10226800B3FCF6E7600C00200034014000B58BB0E9
:102278000023069307930893099303682D4A934212
:1022880008D02D4A934227D02C4A934246D00BB00F
:102298005DF804FB2A4B9A6942F400629A619A69D4
:1022A80002F400620192019A9A6942F040029A612E
:1022B8009B6903F040030293029B4FF4206306934B
:1022C80006A9204801F09AF91F4A536843F0E063D1
:1022D80043F0C0035360DAE7194BDA6942F00402AD
:1022E800DA61DA6902F004020392039A9A6942F009
:1022F80020029A619B6903F020030493049B4FF426
:102308004053069306A9114801F078F90E4A53681C
:1023180043F0E06343F480535360B8E7084BDA694D
:1023280042F00802DA61DB6903F008030593059BB4
:10233800ADE700BF002C014000080040000C004041
:102348000010024000180140000001400014014044
:1023580000B58BB00023069307930893099303688D
:10236800B3F1804F05D02B4A934239D00BB05DF8BA
:1023780004FB03F50433DA6942F00102DA61DA6931
:1023880002F001020192019A9A6942F004029A61EC
:102398009A6902F004020292029A9A6942F00802CB
:1023A8009A619B6903F008030393039B4FF400436E
:1023B800069306A9184801F021F90823069300237B
:1023C8000793089306A9154801F018F9144A5368A9
:1023D80023F4407343F0E06343F480735360C5E72C
:1023E800104B9A6942F400529A619A6902F40052B9
:1023F8000492049A9A6942F010029A619B6903F068
:1024080010030593059BC023069306A9064801F00F
:10241800F5F8ABE70034014000080140000C01402A
:1024280000000140001002400010014002680E4BFD
:102438009A4200D0704700B583B003F5FE33DA69DD
:1024480042F02002DA61DB6903F020030193019B6B
:1024580000220321372000F08FFD372000F0C4FD53
:1024680003B05DF804FB00BF0014004000B589B05C
:102478000023049305930693079303682B4A93421A
:1024880008D02B4A934221D02A4A93423AD009B025
:102498005DF804FB284B9A6942F040029A619B69F7
:1024A80003F040030193019B4FF4C04304930223BC
:1024B8000593079304A9214801F0A0F8204A53681E
:1024C80043F0E06343F0C0035360E0E71A4B9A69B6
:1024D80042F020029A619B6903F020030293029B59
:1024E8004FF44043049302230593079304A9154826
:1024F80001F084F8124A536843F0E06343F48053D0
:102508005360C4E70C4B9A6942F004029A619B69D4
:1025180003F004030393039B022304930593079397
:1025280004A9094801F06AF8B1E700BF002C01408E
:1025380000080040000C0040001002400018014054
:1025480000000140001401400008014010B59AB095
:102558002422002111A802F059FF00240F9410949E
:10256800089409940A940B940C940D940E942022C8
:102578002146684602F04AFF3248334B036040F276
:10258800CF23436084606323C36004614461846132
:1025980002F01CF8002842D1012211920023129364
:1025A800139214931593169317921893199311A9CC
:1025B800244802F037F8002834D100230F931093F1
:1025C8000FA9204802F01AFA00282ED16023089398
:1025D800002309930A930B930C930D930E930822EF
:1025E80008A9184802F0B2F810BB0C2208A915482F
:1025F80002F0ACF8F8B90023009301930293039317
:1026080004934FF400520592079369460D4802F06F
:1026180033FA98B90B48FFF729FF1AB010BDFFF736
:10262800D3FAB9E7FFF7D0FAC7E7FFF7CDFACDE756
:10263800FFF7CAFAD9E7FFF7C7FADCE7FFF7C4FAEA
:10264800E8E700BFF80A0020002C014000B593B06D
:10265800242200210DEB020002F0D8FE002307938C
:1026680008930093019302930393049305930693AD
:102678002748284A02604722426083604FF6FF726B
:10268800C26003618023836101F0A0FF002830D17C
:102698000323099300230A9301220B920C930D93B1
:1026A8000E930F921093119309A9194801F0BAFFDC
:1026B80010BB00230793089307A9154802F09EF959
:1026C800E8B960230093002301930293049308223E
:1026D80069460F4802F03AF8A0B90C2269460C483E
:1026E80002F034F888B90A48FFF7C0FE13B05DF865
:1026F80004FBFFF769FACBE7FFF766FAD9E7FFF7BC
:1027080063FADEE7FFF760FAE7E7FFF75DFAEAE763
:10271800880B00200008004000B58BB00023089308
:1027280009930193029303930493059306930793E4
:102738001848194A0260436083604FF6FF72C2600E
:102748000361836101F042FFD0B900230893099324
:1027580008A9104802F052F9A8B960230193002390
:1027680002930393059304220DEB0201094801F03B
:10277800EDFF58B90748FFF779FE0BB05DF804FB89
:10278800FFF722FAE1E7FFF71FFAE6E7FFF71CFA7F
:10279800F0E700BFD00B0020000C004008B50A4845
:1027A8000A4B03604FF4E133436000238360C36046
:1027B80003610C2242618361C36102F05BFA00B9D4
:1027C80008BDFFF701FAFBE7FC0D0020004C0040B4
:1027D80008B50A480A4B03604FF4E133436000230D
:1027E8008360C36003610C2242618361C36102F0AC
:1027F80041FA00B908BDFFF7E7F9FBE7400E0020F2
:102808000050004008B50A480A4B03604FF4E13312
:10281800436000238360C36003610C2242618361CB
:10282800C36102F027FA00B908BDFFF7CDF9FBE74D
:10283800300D00200038014008B50A480A4B0360F3
:102848004FF4E133436000238360C36003610C22CB
:1028580042618361C36102F00DFA00B908BDFFF758
:10286800B3F9FBE7740D00200044004008B50A489E
:102878000A4B03604FF4E133436000238360C36075
:1028880003610C2242618361C36102F0F3F900B96C
:1028980008BDFFF799F9FBE7B80D00200048004094
:1028A80070B590B000230C930D930E930F930368AB
:1028B800A74A934210D00446A64A93423ED0A64A5D
:1028C800934274D0A54A934200F0A380A44A93424D
:1028D80000F0D68010B070BDA24BDA6942F4002235
:1028E800DA61DA6902F400220192019A9A6942F0E7
:1028F80010029A619B6903F010030293029B4FF444
:1029080080630C9302230D9303230F93964D0CA918
:10291800284600F073FE4FF400630C9300240D94D6
:102928000E940CA9284600F069FE22462146342060
:1029380000F022FB342000F057FBCBE7894BDA6923
:1029480042F48012DA61DA6902F480120392039A7F
:102958009A6942F010029A619A6902F01002049290
:10296800049A9A6942F020029A619B6903F0200355
:102978000593059B4FF480530C9302230D93032377
:102988000F930CA9784800F039FE04230C93002417
:102998000D940E940CA9754800F030FE224621468D
:1029A800352000F0E9FA352000F01EFB92E76D4B68
:1029B8009A6942F480429A619A6902F480420692C6
:1029C800069A9A6942F004029A619B6903F004032B
:1029D8000793079B4FF400730C9302250D9503236F
:1029E8000F93634E0CA9304600F008FE4FF4806345
:1029F8000C9300240D940E940CA9304600F0FEFDB3
:102A080022462946252000F0B7FA252000F0ECFAE6
:102A180060E7544BDA6942F40032DA61DA6902F4A9
:102A280000320892089A9A6942F020029A619B69DA
:102A380003F020030993099B20230C9302250D958D
:102A480003230F93494E0CA9304600F0D7FD4023CD
:102A58000C9300240D940E940CA9304600F0CEFD82
:102A6800444A536843F0E06343F008035360224646
:102A78002946262000F080FA262000F0B5FA29E73A
:102A8800384BDA6942F48022DA61DA6902F480228A
:102A98000A920A9A9A6942F020029A619B6903F0A5
:102AA80020030B930B9B4FF480730C9302230D931D
:102AB80003230F932D4E0CA9304600F09FFD4FF4D1
:102AC80000730C9300250D950E950CA9304600F067
:102AD80095FD284A536843F0E06343F030035360A0
:102AE8002548264B0360456085608023C3600561E7
:102AF800456185614FF48053C36100F0ADFA00BBB6
:102B08001D4BA3635C621E481E4B03601023436089
:102B1800002383608022C2600361436183614FF4B4
:102B28008053C36100F098FA70B9154B63635C6217
:102B380000221146272000F01FFA272000F054FA3F
:102B4800C8E6FFF741F8DBE7FFF73EF8EDE700BF1F
:102B5800004C004000500040003801400044004054
:102B680000480040001002400010014000140140DD
:102B78000008014000000140A80C0020300002407D
:102B8800EC0C00201C0002400C480D490D4A0023A3
:102B980002E0D458C4500433C4188C42F9D30A4A0A
:102BA8000A4C002301E013600432A242FBD3FFF772
:102BB800CDFA02F007FCFFF74DF87047000000203F
:102BC800C00900206CB90008C0090020D00E002000
:102BD800FEE7000010B504460E4B18784FF47A73E0
:102BE800B3FBF0F30C4A1068B0FBF3F000F00AFAFC
:102BF80068B90F2C01D901200AE0002221464FF0C4
:102C0800FF3000F0B9F9054B1C60002000E00120FE
:102C180010BD00BF08000020040000200C000020A8
:102C280008B5074A136843F010031360032000F047
:102C380091F90F20FFF7CEFFFFF7BCF9002008BD80
:102C480000200240034A1168034B1B780B441360B1
:102C5800704700BF840E002008000020014B186850
:102C6800704700BF840E002038B50446FFF7F6FF12
:102C78000546B4F1FF3F02D0044B1B781C44FFF714
:102C8800EDFF401BA042FAD338BD00BF080000206A
:102C980030B482B00022019290F82420012A00F07A
:102CA80091800346012280F824204A68062A2DD8FC
:102CB8000468606B02EB8202053A4FF01F0C0CFAB5
:102CC80002FC20EA0C000D6805FA02F20243626376
:102CD8000A68092A3AD91C68E06802EB42021E3ADF
:102CE8004FF0070C0CFA02FC20EA0C008D6805FA7C
:102CF80002F20243E2600A68103A012A36D900203B
:102D0800002283F8242002B030BC70470C2A0ED869
:102D18000568286B02EB8202233A1F24944020EABC
:102D280004000C6804FA02F202432A63D0E705683B
:102D3800E86A02EB8202413A1F24944020EA040028
:102D48000C6804FA02F20243EA62C1E71C682069CF
:102D580002EB42024FF0070C0CFA02FC20EA0C00CE
:102D68008D6805FA02F202432261C4E71A68164820
:102D7800824205D09A6A42F020029A620120BFE797
:102D8800906810F4000F1BD1906840F40000906028
:102D98000A68102A01D00020B2E70C4A12680C49D0
:102DA800A1FB0212920C02EB82025200019202E095
:102DB800019A013A0192019A002AF9D100209FE76D
:102DC80000209DE702209EE7002401400400002027
:102DD80083DE1B4338B503689A6812F0010F01D1EE
:102DE800002038BD04469A6822F001029A60FFF775
:102DF80035FF054623689B6813F0010F13D0FFF7D2
:102E08002DFF431B022BF5D923689B6813F0010F94
:102E1800F0D0A36A43F01003A362E36A43F001030E
:102E2800E3620120DDE70020DBE70000002800F076
:102E3800888070B50446836A002B52D02046FFF77D
:102E4800C9FFA36A13F0100375D1002873D1A26AD1
:102E580022F4885222F0020242F00202A262626860
:102E6800266839498E4242D0E1690A43217B42EA09
:102E78004102A568B5F5807F02D0012D3ED01D46E0
:102E880094F814C0BCF1010F3BD0716821F469417A
:102E9800294371602568AE682C4931401143A96007
:102EA800A168B1F5807F01D0012902D12369013BD6
:102EB8001B052568E96A21F470010B43EB6223685E
:102EC8009968234B0B409A422CD0A36A23F0120333
:102ED80043F01003A362E36A43F00103E3620120B5
:102EE8002EE0C36280F82430FEF77CFBA6E7E16998
:102EF800B1F5402FB9D14FF40021B6E74FF48075F2
:102F0800BEE731B9A169013945EA413141F40065AB
:102F1800BBE7A16A41F02001A162E16A41F0010129
:102F2800E162B2E70023E362A36A23F0030343F0FC
:102F38000103A36204E0A36A43F01003A362012023
:102F480070BD0120704700BF003C0140FDF7E1FF64
:102F5800FE0E1FFF074AD36823F4E0631B041B0C13
:102F6800000200F4E060034343F0BF6343F400331E
:102F7800D360704700ED00E000B5194BDB68C3F380
:102F88000223C3F1070CBCF1040F28BF4FF0040C57
:102F980003F1040EBEF1060F18D9033B4FF0FF3EB4
:102FA8000EFA0CFC21EA0C0199400EFA03F322EA0E
:102FB8000303194300280BDB0901C9B200F1604083
:102FC80000F5614080F800135DF804FB0023E5E795
:102FD80000F00F000901C9B2024B1954F4E700BF11
:102FE80000ED00E014ED00E0002807DB00F01F0210
:102FF800400901239340024A42F82030704700BF3D
:1030080000E100E00138B0F1807F0BD24FF0E023FF
:103018005861054AF02182F82310002098610722A0
:103028001A6170470120704700ED00E030B40124B8
:10303800056CAC40C56B6C60046863604368102B1A
:1030480005D0036899600368DA6030BC704703688C
:103058009A600368D960F8E700283AD010B40246AD
:1030680000681D4B984229D81C4B03441C49A1FBFE
:1030780003131B099B0013641A4BD363022382F8C2
:103088002130016821F47F5121F0300153689468A0
:103098002343D4682343146923435469234394691D
:1030A8002343D46923430B43036000209063012327
:1030B80082F8213082F8200010BC70470A4B034484
:1030C8000749A1FB03131B099B001364074BD36338
:1030D800D4E70120704700BF07040240F8FFFDBF96
:1030E800CDCCCCCC00000240F8FBFDBF0004024070
:1030F80038B5044690F82000012831D0012084F822
:10310800200094F82100012804D0002384F82030FE
:10311800022038BD022084F821000020A063256821
:10312800286820F0010028602046FFF77FFFE36A47
:103138005BB12268136843F00E03136022681368BA
:1031480043F0010313600020E3E72268136823F0CB
:10315800040313602268136843F00A031360EDE761
:103168000220D6E790F82130022B06D0042383638F
:10317800002380F82030012070470268136823F08C
:103188000E0313600268136823F001031360036CD5
:10319800C16B012202FA03F34B6080F8212000235F
:1031A80080F820301846704708B590F82130022B77
:1031B80003D004238363012008BD0268136823F049
:1031C8000E0313600268136823F001031360036899
:1031D8004B4A93424ED9783A934224D014329342C0
:1031E80030D0143293422FD0143293422FD014325D
:1031F80093422FD0143293422FD0143293422FD0BF
:1032080002F5627293422ED0143293422DD01432BA
:1032180093422CD01432934202D04FF4803203E010
:103228004FF4805200E00122364B5A60012380F8A7
:103238002130002380F82030436B002B5ED0984764
:103248000020B9E71022EFE74FF48072ECE74FF463
:103258008052E9E74FF48032E6E74FF48012E3E763
:103268004FF08072E0E70122DEE71022DCE74FF43E
:103278008072D9E7244A934224D01432934225D04D
:103288001432934224D01432934224D014329342FD
:1032980024D01432934224D01432934224D002F51D
:1032A8006272934223D01432934222D01432934252
:1032B80021D01432934202D04FF4803203E04FF40D
:1032C800805200E00122114B5A60AFE71022FAE762
:1032D8004FF48072F7E74FF48052F4E74FF48032EE
:1032E800F1E74FF48012EEE74FF08072EBE701222E
:1032F800E9E71022E7E74FF48072E4E700205BE794
:103308008000024000040240080002400000024021
:1033180038B5C36B1A6804682568016C04238B40B0
:10332800134200F09B8015F0040F00F0978023688B
:1033380013F0200F03D1236823F0040323600368EC
:103348009A4A934246D9783A934224D01432934207
:1033580028D01432934227D01432934227D0143203
:10336800934227D01432934227D01432934227D065
:1033780002F56272934226D01432934225D0143259
:10338800934224D01432934202D04FF4802203E0B7
:103398004FF4804200E00422854B5A60C36A03B1AF
:1033A800984738BD4022F7E74FF48062F4E74FF4BE
:1033B8008042F1E74FF48022EEE74FF48002EBE71A
:1033C8004FF08062E8E70422E6E74022E4E74FF4A2
:1033D8008062E1E7774A934224D01432934225D0A1
:1033E8001432934224D01432934224D0143293429C
:1033F80024D01432934224D01432934224D002F5BC
:103408006272934223D01432934222D014329342F0
:1034180021D01432934202D04FF4802203E04FF4BB
:10342800804200E00422644B5A60B7E74022FAE782
:103438004FF48062F7E74FF48042F4E74FF48022BC
:10344800F1E74FF48002EEE74FF08062EBE70422E9
:10345800E9E74022E7E74FF48062E4E702238B4084
:10346800134200F0AB8015F0020F00F0A78023682C
:1034780013F0200F06D1236823F00A0323600123E9
:1034880080F821300368494A93424BD9783A9342ED
:1034980024D0143293422DD0143293422CD01432BB
:1034A80093422CD0143293422CD0143293422CD015
:1034B800143293422CD002F5627293422BD014320C
:1034C80093422AD01432934229D01432934202D024
:1034D8004FF4003203E04FF4005200E00222344B74
:1034E8005A60002380F82030836A002B3FF459AFDC
:1034F800984756E72022F2E74FF40072EFE74FF4BF
:103508000052ECE74FF40032E9E74FF40012E6E727
:103518004FF00072E3E70222E1E72022DFE74FF4F1
:103528000072DCE7234A934224D01432934225D018
:103538001432934224D01432934224D0143293424A
:1035480024D01432934224D01432934224D002F56A
:103558006272934223D01432934222D0143293429F
:1035680021D01432934202D04FF4003203E04FF4DA
:10357800005200E00222104B5A60B2E72022FAE71C
:103588004FF40072F7E74FF40052F4E74FF40032BB
:10359800F1E74FF40012EEE74FF00072EBE702227A
:1035A800E9E72022E7E74FF40072E4E780000240F1
:1035B800000402400800024000000240082303FA09
:1035C80001F111423FF4EDAE15F0080F3FF4E9AEFA
:1035D800236823F00E032360026CC16B012303FAF6
:1035E80002F24A60836380F82130002380F820309B
:1035F800036B002B3FF4D5AE9847D2E670B582B086
:103608000024A446B0E0874DAA4210D007D9864DC1
:10361800AA420CD005F58035AA4208D013E0A5F5DA
:103628008015AA4203D005F57025AA4207D18A68F9
:10363800002A62D0012A5BD04361082403E0A5F583
:103648008015AA42F3D0BEF1FF0F58D80646BEF146
:10365800FF0F56D84FEA8C0233680F25954023EAAE
:10366800050304FA02F2134333604B6813F0805FDA
:1036780078D06E4B9A6942F001029A619B6903F017
:1036880001030193019B4FEA9C02951C684B53F878
:1036980025600CF003039D000F23AB4026EA0306C8
:1036A800644B984233D003F58063984200F09880C9
:1036B80003F58063984200F0958003F58063984293
:1036C80000F0928003F58063984200F08F8003F544
:1036D8008063984219D006231AE0CC68B3E7CC6817
:1036E8000434B0E7CC680834ADE7CC680C34AAE7FA
:1036F80003610824A7E70024A5E70424A3E7061D1F
:10370800A5E7ACF108029200A6E7052300E0002334
:10371800AB4033430232464D45F822304B6813F430
:10372800803F65D0444A136843EA0E0313604B6830
:1037380013F4003F62D0404A536843EA0E035360D3
:103748004B6813F4801F5FD03B4A936843EA0E032B
:1037580093604B6813F4001F5CD0374AD36843EA80
:103768000E03D3600CF1010C0A6832FA0CF357D03F
:10377800012303FA0CF302EA030E33EA0202F1D141
:103788004A68122A3FF63FAF122A3FF65CAF01A5FE
:1037980055F822F037360008E3360008ED36000801
:1037A800FF3600084F3600084F3600084F3600082D
:1037B8004F3600084F3600084F3600084F360008CD
:1037C8004F3600084F3600084F3600084F360008BD
:1037D8004F3600084F360008E7360008F336000871
:1037E800012395E7022393E7032391E704238FE757
:1037F800114A136823EA0E03136098E70E4A5368C8
:1038080023EA0E0353609BE70B4A936823EA0E03EF
:1038180093609EE7084AD36823EA0E03D360A1E7C2
:1038280002B070BD000022100000311000100240EC
:103838000000014000080140000401400AB1016194
:103848007047090401617047C36801EA030221EA6D
:10385800030141EA0241016170470000034A13680D
:1038680023F07F03084303431360704700000140BF
:10387800024A136843F08003136070470000014058
:10388800002800F0CC8070B5044690F83D30002B3D
:1038980077D0242384F83D302268136823F001038D
:1038A80013602268136843F40043136022681368A6
:1038B80023F40043136000F0D3FB62685A4B9A422A
:1038C80064D85A4B98428CBF00230123002B40F048
:1038D800A8805749A1FB00318B0C25686A6822F043
:1038E8003F0242EA91426A6021680A6A22F03F0276
:1038F80066684D4DAE424FD8013313430B622168C1
:10390800CA6922F44F4222F0FF026668464B9E4283
:103918004CD8431E7600B3FBF6F3013340F6FC7037
:10392800034278D0C3F30B031343CB6121680B68C0
:1039380023F0C003E269206A024313430B60216845
:103948008B6823F4034323F0FF032269E0680243F2
:1039580013438B602168CB6823F0FF036269A06979
:1039680002431343CB602268136843F001031360DA
:1039780000202064202384F83D30206384F83E0032
:1039880070BD80F83C30FDF75FFF82E7294B984215
:103998008CBF0023012399E74FF4967505FB03F3C9
:1039A800254DA5FB03539B090133A6E7A368BBB9C3
:1039B800451E06EB460CB5FBFCF50135C5F30B05BA
:1039C800B5FA85F56D0945BBC3B9013806EB460361
:1039D800B0FBF3F30133C3F30B0343F40043A3E752
:1039E800451E06EB860C0CEB8C0CB5FBFCF5013583
:1039F800C5F30B05B5FA85F56D09E4E7013806EB63
:103A0800860303EB8303B0FBF3F30133C3F30B0328
:103A180043F4404388E7042386E7012384E7012031
:103A280070470120ACE700BFA08601007F841E001C
:103A380083DE1B43FF083D00D34D621082B0084B64
:103A48001B68084AA2FB03235B0A00FB03F30193EC
:103A580000BF019B5A1E0192002BF9D102B070479A
:103A680004000020D34D6210002800F0F18170B5E9
:103A780082B00446036813F0010F2CD0994B5B68A1
:103A880003F00C03042B1DD0964B5B6803F00C036A
:103A9800082B12D06368B3F5803F41D0002B55D175
:103AA80003F1804303F504331A6822F480321A6064
:103AB8001A6822F480221A6037E08A4B5B6813F494
:103AC800803FE7D0874B1B6813F4003F03D063683F
:103AD800002B00F0BF81236813F0020F75D0814BD3
:103AE8005B6813F00C0F5FD07E4B5B6803F00C0330
:103AF800082B54D02369002B00F08A807A4B0122CE
:103B08001A60FFF7ABF80546764B1B6813F0020FF7
:103B180075D1FFF7A3F8401B0228F5D903209EE1D1
:103B2800704A136843F480331360636843B3FFF744
:103B380095F805466B4B1B6813F4003FCBD1FFF794
:103B48008DF8401B6428F5D9032088E1B3F5A02F30
:103B580009D0644B1A6822F480321A601A6822F479
:103B680080221A60E1E703F18043A3F53C331A6829
:103B780042F480221A601A6842F480321A60D4E74C
:103B8800FFF76CF80546574B1B6813F4003FA2D0AB
:103B9800FFF764F8401B6428F5D903205FE1514B17
:103BA8005B6813F4803FA5D14E4B1B6813F0020FDE
:103BB80003D02369012B40F04F814A4A136823F050
:103BC800F803616943EAC1031360236813F0080F1F
:103BD80033D0A369002B5CD0434B0122C3F8802467
:103BE800FFF73CF805463F4B5B6A13F0020F21D103
:103BF800FFF734F8401B0228F5D903202FE1394A92
:103C0800136823F0F803616943EAC1031360DCE732
:103C1800354B00221A60FFF721F80546314B1B6827
:103C280013F0020FD1D0FFF719F8401B0228F5D97D
:103C3800032014E10120FFF701FF236813F0040FAC
:103C480000F09680274BDB6913F0805F34D1254B59
:103C5800DA6942F08052DA61DB6903F0805301933C
:103C6800019B0125214B1B6813F4807F26D0E36854
:103C7800012B3DD0002B53D103F1804303F50433CE
:103C88001A6A22F001021A621A6A22F004021A62FF
:103C980033E0154B0022C3F88024FEF7DFFF05460A
:103CA800104B5B6A13F0020FC7D0FEF7D7FF401B1B
:103CB8000228F5D90320D2E00025D3E70B4A136880
:103CC80043F480731360FEF7C9FF0646074B1B6871
:103CD80013F4807FCBD1FEF7C1FF801B6428F5D990
:103CE8000320BCE000100240000042420070004087
:103CF8005F4A136A43F001031362E36833B3FEF7C4
:103D0800ADFF06465A4B1B6A13F0020F2FD1FEF780
:103D1800A5FF801B41F288339842F3D903209EE027
:103D2800052B09D0524B1A6A22F001021A621A6A4C
:103D380022F004021A62E0E74D4B1A6A42F00402CC
:103D48001A621A6A42F001021A62D6E7FEF786FF83
:103D58000646474B1B6A13F0020F08D0FEF77EFF9A
:103D6800801B41F288339842F3D9032077E0E5B904
:103D7800E369002B72D03E4A526802F00C02082A0E
:103D880056D0022B17D03B4B00221A66FEF766FF6F
:103D98000446374B1B6813F0007F47D0FEF75EFFE1
:103DA800001B0228F5D9032059E0314AD36923F0D2
:103DB8008053D361DCE72F4B00221A66FEF74EFFD3
:103DC80005462B4B1B6813F0007F06D0FEF746FF15
:103DD800401B0228F5D9032041E0236AB3F5803F50
:103DE8001AD023494B6823F47413226A606A024389
:103DF80013434B601F4B01221A66FEF72FFF044640
:103E08001B4B1B6813F0007F0ED1FEF727FF001B2A
:103E18000228F5D9032022E0154A536823F4003319
:103E2800A1680B435360DCE7002018E0002016E08F
:103E3800012B16D00E4B5B6803F48031226A914245
:103E480011D103F47013626A93420ED1002006E088
:103E580001207047012002E0012000E0002002B0AC
:103E680070BD0120FBE70120F9E70120F7E700BF5B
:103E7800001002400000424286B0174B0FCB0DF1F4
:103E8800180C0CE90F0040F20123ADF80430134B75
:103E98005B6803F00C02082A02D0114806B070478C
:103EA800C3F3834218326A4412F8100C13F4803FAB
:103EB8000DD00A4B5B68C3F3404318336B4413F8C7
:103EC800143C074A02FB00F0B0FBF3F0E6E7054BB1
:103ED80003FB00F0E2E700BF90B5000800100240C5
:103EE80000127A0000093D00002800F0A08070B59B
:103EF8000D460446524B1B6803F007038B420BD256
:103F08004F4A136823F007030B431360136803F049
:103F180007038B4240F08D80236813F0020F17D0FF
:103F280013F0040F04D0474A536843F4E063536026
:103F3800236813F0080F04D0424A536843F46053CF
:103F48005360404A536823F0F003A1680B43536061
:103F5800236813F0010F31D06368012B20D0022BA6
:103F680025D0384A126812F0020F64D035494A68E1
:103F780022F0030213434B60FEF770FE0646314BF6
:103F88005B6803F00C036268B3EB820F16D0FEF790
:103F980065FE801B41F288339842F0D9032045E042
:103FA800284A126812F4003FE0D101203EE0254A79
:103FB800126812F0007FD9D1012037E0204B1B682E
:103FC80003F00703AB420AD91D4A136823F007031D
:103FD8002B431360136803F00703AB422DD123680A
:103FE80013F0040F06D0174A536823F4E063E1681E
:103FF8000B435360236813F0080F07D0114A536826
:1040080023F46053216943EAC1035360FFF734FF87
:104018000C4B5B68C3F303130B4AD35CD8400B4BC0
:1040280018600B4B1868FEF7D5FD002070BD012005
:1040380070470120FAE70120F8E70120F6E700BF02
:10404800002002400010024078B50008040000205B
:104058000C000020014B1868704700BF04000020C6
:1040680008B5FFF7F7FF044B5B68C3F30223034A65
:10407800D35CD84008BD00BF0010024088B50008D6
:1040880008B5FFF7E7FF044B5B68C3F3C223034A95
:10409800D35CD84008BD00BF0010024088B50008B6
:1040A80070B582B00446036813F0010F36D03F4B59
:1040B800DB6913F0805F49D13C4BDA6942F08052EA
:1040C800DA61DB6903F080530193019B0125384BCA
:1040D8001B6813F4807F3BD0344B1B6A13F4407386
:1040E80013D0626802F440729A420ED02F4A136AC3
:1040F80023F440702F490126C1F840640026C1F816
:104108004064106213F0010F36D1284A136A23F471
:10411800407361680B431362002D3ED1236813F08E
:10412800020F06D0214A536823F44043A1680B4389
:104138005360236813F0100F34D01C4A536823F4DB
:10414800800361690B43536000202CE00025BEE723
:10415800174A136843F480731360FEF77FFD064621
:10416800134B1B6813F4807FB6D1FEF777FD801BD5
:104178006428F5D9032016E0FEF770FD06460B4BC0
:104188001B6A13F0020FC0D1FEF768FD801B41F2D5
:1041980088339842F3D9032005E0D36923F080538C
:1041A800D361BBE7002002B070BD00BF0010024021
:1041B800007000400000424230B4036A23F001035B
:1041C8000362036A4268846924F073040D682C430F
:1041D80023F0020C8B6843EA0C03104DA84203D06D
:1041E80005F50065A84205D123F00803CD682B43E7
:1041F80023F00403094DA84203D005F50065A84241
:1042080005D122F440724D692A438D692A434260E0
:1042180084614A684263036230BC7047002C0140E5
:1042280030B4036A23F480730362036A4268C46982
:1042380024F0730C0C6844EA0C0523F400738C68B2
:1042480043EA0423114CA04203D004F50064A042C1
:1042580006D123F40063CC6843EA042323F4806383
:104268000A4CA04203D004F50064A04207D122F40E
:1042780040524C6942EA04128C6942EA04124260D4
:10428800C5614A68C263036230BC7047002C0140B4
:1042980030B4036A23F480530362036A4468C26932
:1042A80022F4E6420D6842EA052223F400538D68A1
:1042B80043EA0533094DA84203D005F50065A84235
:1042C80004D124F480444D6944EA85144460C261F1
:1042D8004A680264036230BC704700BF002C01408A
:1042E80090F83D30DBB2012B2FD1022380F83D300E
:1042F8000268D36843F00103D3600368154A934208
:1043080018D002F50062934214D0B3F1804F11D057
:10431800A2F5983293420DD002F58062934209D0FB
:1043280002F58062934205D01A6842F001021A60D1
:10433800002070479A6802F00702062A07D01A6818
:1043480042F001021A6000207047012070470020E7
:10435800704700BF002C0140704770477047704796
:1043680010B5044603681A6912F0020F11D0DA6812
:1043780012F0020F0DD06FF002021A6101230377C9
:1043880003689B6913F0030F70D0FFF7E6FF002363
:10439800237723681A6912F0040F12D0DA6812F032
:1043A800040F0ED06FF004021A61022323772368EA
:1043B8009B6913F4407F5FD02046FFF7CEFF0023B0
:1043C800237723681A6912F0080F12D0DA6812F0FE
:1043D800080F0ED06FF008021A61042323772368B0
:1043E800DB6913F0030F4ED02046FFF7B6FF00231A
:1043F800237723681A6912F0100F12D0DA6812F0C6
:10440800100F0ED06FF010021A610823237723686B
:10441800DB6913F4407F3DD02046FFF79EFF002361
:10442800237723681A6912F0010F03D0DA6812F0B3
:10443800010F36D123681A6912F0800F03D0DA68A9
:1044480012F0800F34D123681A6912F0400F03D09C
:10445800DA6812F0400F32D123681A6912F0200F7F
:1044680003D0DA6812F0200F30D110BDFFF774FFC7
:104478002046FFF773FF8AE72046FFF76DFF2046C7
:10448800FFF76CFF9BE72046FFF766FF2046FFF724
:1044980065FFACE72046FFF75FFF2046FFF75EFFAA
:1044A800BDE76FF001021A612046FDF741FAC1E746
:1044B8006FF080021A61204600F008FBC3E76FF036
:1044C80040021A612046FFF74AFFC5E76FF0200255
:1044D8001A61204600F0F9FAC7E700000368244A89
:1044E800904212D002F5006290420ED0B0F1804F97
:1044F8000BD0A2F59832904207D002F58062904224
:1045080003D002F58062904203D123F070034A6819
:104518001343174A904212D002F5006290420ED01F
:10452800B0F1804F0BD0A2F59832904207D002F537
:104538008062904203D002F58062904203D123F456
:104548004073CA68134323F080034A691343036026
:104558008B68C3620B688362054B984203D003F5EE
:104568000063984201D10B690363012343617047DB
:10457800002C014040B310B5044690F83D30F3B12B
:10458800022384F83D30214651F8040BFFF7A6FFBB
:10459800012384F8463084F83E3084F83F3084F8AC
:1045A800403084F8413084F8423084F8433084F84D
:1045B800443084F8453084F83D30002010BD80F840
:1045C8003C30FDF733FFDBE70120704740B310B5FF
:1045D800044690F83D30F3B1022384F83D3021467B
:1045E80051F8040BFFF77AFF012384F8463084F86A
:1045F8003E3084F83F3084F8403084F8413084F805
:10460800423084F8433084F8443084F8453084F8E4
:104618003D30002010BD80F83C30FDF727FEDBE779
:1046280001207047002857D070B50D46044690F811
:104638003D30002B4BD0022384F83D30226893682C
:1046480023F4804323F007039360214651F8040BB9
:10465800FFF744FF21688A688B690E6A286810434F
:1046680023F4407C2CF0030CAA68AB6942EA0323CC
:1046780043EA0C0323F47C4323F0FC03EA69D5F8EE
:104688000CC04CEA022C4CEA030C2A6A13032A6970
:1046980043EA021343EA0C0326F022066A686D69AE
:1046A80042EA05123243886021688B6123681A62E6
:1046B800012384F8463084F83E3084F83F3084F88B
:1046C800423084F8433084F83D30002070BD80F8D3
:1046D8003C30FDF73DFEAEE70120704730B4036A79
:1046E80023F010030362036A4468826922F4E642F5
:1046F8000D6842EA052223F020038D6843EA05137A
:10470800114DA84203D005F50065A84206D123F053
:104718008003CD6843EA051323F040030A4DA842FD
:1047280003D005F50065A84207D124F440644D691B
:1047380044EA85048D6944EA8504446082614A68D4
:104748008263036230BC7047002C014038B590F892
:104758003C30012B60D004460D46012380F83C30E4
:104768000C2A1AD8DFE802F0071919191D191919A6
:104778003119191944000068FFF71EFD2268936972
:1047880043F0080393612268936923F0040393615B
:104798002268936929690B439361002084F83C00DF
:1047A80038BD0068FFF79AFF2268936943F40063F5
:1047B80093612268936923F4806393612268936903
:1047C800296943EA01239361E7E70068FFF728FDB9
:1047D8002268D36943F00803D3612268D36923F0C0
:1047E8000403D3612268D36929690B43D361D4E7F1
:1047F8000068FFF74DFD2268D36943F40063D36175
:104808002268D36923F48063D3612268D369296954
:1048180043EA0123D361C0E70220C1E701F01F0189
:10482800012303FA01FC036A23EA0C030362036A07
:1048380002FA01F10B4303627047000010B5044609
:10484800084600293AD194F83E30DBB2013B18BF44
:104858000123002B66D1002849D1022384F83E3079
:10486800012201462068FFF7D9FF23682F4A9342A7
:1048780003D002F50062934203D15A6C42F400421D
:104888005A642368294A934241D002F50062934250
:104898003DD0B3F1804F3AD0A2F59832934236D04A
:1048A80002F58062934232D002F5806293422ED0A4
:1048B8001A6842F001021A60002032E0042908D088
:1048C80008290DD094F84130DBB2013B18BF012311
:1048D800BFE794F83F30DBB2013B18BF0123B8E7CC
:1048E80094F84030DBB2013B18BF0123B1E704283C
:1048F80005D0082807D0022384F84130B0E7022306
:1049080084F83F30ACE7022384F84030A8E79A687F
:1049180002F00702062A07D01A6842F001021A605C
:10492800002010BD0120FCE70020FAE7002C014020
:1049380038B5044690F83E00C0B294F83F3094F879
:104948004220D2B294F843C00D46B1B9012849D1EA
:10495800012A48D1022384F83E3084F842307DB3DE
:10496800042D39D0012200212068FFF757FF0122CA
:1049780004212068FFF752FF27E0DBB25FFA8CFCC6
:10498800042912D0012833D1012B2CD1012A31D18D
:10499800BCF1010F30D1022384F83E3084F83F3057
:1049A80084F8423084F84330D9E7012B1CD1BCF19C
:1049B800010F1BD1022384F83F3084F84330CEE73F
:1049C800012200212068FFF729FF2268136843F0BD
:1049D80001031360002006E0012204212068FFF78C
:1049E8001DFFF2E7012038BD0120FCE71846FAE771
:1049F8000120F8E71846F6E71046F4E790F83C304F
:104A0800012B34D010B4012380F83C30022380F805
:104A18003D3003685A689C6822F0700C0A6842EAC4
:104A28000C025A600368134A934212D002F50062DE
:104A380093420ED0B3F1804F0BD0A2F59832934237
:104A480007D002F58062934203D002F58062934258
:104A580004D124F080044A6814439C60012380F840
:104A68003D30002380F83C30184610BC70470220C7
:104A7800704700BF002C014090F83C30012B22D039
:104A8800012380F83C30CB6823F440738A681343D1
:104A980023F480634A68134323F400630A681343CA
:104AA80023F480530A69134323F400534A691343D8
:104AB80023F48043CA69134302685364002380F8CF
:104AC8003C301846704702207047704770470268AC
:104AD800D36823F0C003D360202380F83D307047AB
:104AE8000268D36823F49073D3600268536923F093
:104AF80001035361036B012B05D0202380F83E305E
:104B08000023036370470268D36823F01003D3605F
:104B1800F3E790F83D30DBB2212B01D0022070473B
:104B28008368B3F5805F17D0036A5A1C02621A784B
:104B380003685A60C38C9BB2013B9BB2C3844BB9D8
:104B48000268D36823F08003D3600268D36843F017
:104B58004003D360002070470369002BE4D1036A47
:104B68001B880268C3F308035360036A02330362B5
:104B7800E0E7000010B504460268136923F44053C7
:104B8800C1680B43136183680269134342691A437E
:104B98000168CB6823F4B05323F00C031343CB60B4
:104BA8000268536923F4407381690B4353610268B7
:104BB800134B9A4220D0FFF753FA024602EB8202C7
:104BC80002EB820263689B00B2FBF3F20D48A0FB84
:104BD80002314909642303FB11231B013233A0FB73
:104BE80003235B0903F0F00202EB011203F00F0349
:104BF800216813448B6010BDFFF742FA0246DDE7D7
:104C0800003801401F85EB512DE9F84305460F4652
:104C180016469946DDF820802C68246837EA040394
:104C28000CBF4FF0010C4FF0000CB4451FD1B8F188
:104C3800FF3FF1D0B8F1000F05D0FEF70FF8A0EB59
:104C480009004045E8D92A68D36823F4D073D360B3
:104C58002A68536923F001035361202385F83D3006
:104C680085F83E30002385F83C30032000E0002022
:104C7800BDE8F88358B310B5044690F83D300BB33F
:104C8800242384F83D302268D36823F40053D3608A
:104C98002046FFF76FFF2268136923F490431361DE
:104CA8002268536923F02A0353612268D36843F4C6
:104CB8000053D36000202064202384F83D3084F81A
:104CC8003E3010BD80F83C30FDF7EAFDD8E7012002
:104CD80070472DE9F04182B01E4690F83D30DBB2B6
:104CE800202B54D104460D469046002953D0002A63
:104CF80053D090F83C30012B51D0012380F83C3040
:104D080000230364212380F83D30FDF7A7FF074601
:104D1800A4F82480A4F82680A368B3F5805F05D0A2
:104D28004FF00008002384F83C3012E0236913B1E7
:104D38004FF00008F6E7A8460025F3E738F8023BED
:104D48002268C3F308035360E28C92B2013A92B22C
:104D5800E284E38C9BB273B100963B46002280212B
:104D68002046FFF751FFE0B9002DE7D015F8012BD9
:104D780023685A60E8E700963B4600224021204617
:104D8800FFF742FF78B9202384F83D3000E0022085
:104D980002B0BDE8F0810120FAE70120F8E702201F
:104DA800F6E70320F4E70320F2E790F83D30DBB2A2
:104DB800202B19D1D1B1DAB190F83C30012B19D0A0
:104DC800012380F83C3001628284C284002303649A
:104DD800212280F83D2080F83C300168CA6842F002
:104DE8008002CA6018467047022070470120704749
:104DF800012070470220704738B590F83D30DBB28B
:104E0800202B31D10446002930D0002A30D090F828
:104E18003C30012B2ED0012380F83C300162828483
:104E2800C28400250564212380F83D30436B124875
:104E38009862636B1148D862636B11481863636B9F
:104E48005D6320681346021D606BFEF751F9236805
:104E58006FF040021A6084F83C502268536943F0AE
:104E680080035361284600E0022038BD0120FCE79A
:104E78000120FAE70220F8E78D4E0008D94E000815
:104E8800E74E000808B50346406A1B681B6813F024
:104E9800200F0CD10023C3840268536923F08003D8
:104EA80053610268D36843F04003D36008BDFCF740
:104EB8003DFDFBE708B50168CA6822F04002CA60F8
:104EC800202280F83D20FCF731FD002008BD704706
:104ED80008B5406AFFF7FBFF08BD7047704710B57B
:104EE800446A23685A6994F83D30DBB2212B10D00C
:104EF80023685A6902F0400294F83E30DBB2222B54
:104F080011D0236C43F0100323642046FFF7E6FF1B
:104F180010BD02F08002002AEAD00023E384204674
:104F2800FFF7D5FDE4E7002AEBD00023E385204610
:104F3800FFF7D6FDE5E708B5406A0023C385C384BB
:104F4800FFF7CCFF08BD704790F83E30DBB2222B4C
:104F580060D18368B3F5805F46D0826AB3F5805F1D
:104F680004D0002B4DD10369002B4AD103685B683C
:104F78001370836A01338362C38D9BB2013B9BB27A
:104F8800C385002B48D100B583B00268D36823F0ED
:104F98002003D3600268D36823F48073D360026867
:104FA800536923F001035361202380F83E30036BDB
:104FB800012B2CD1002303630268D36823F010036C
:104FC800D36003681A6812F0100F06D0002201920D
:104FD8001A6801925B680193019B818DFFF7B3FF0B
:104FE800002003B05DF804FB0269002AB5D1826A8B
:104FF80003685B68C3F308031380836A0233836220
:10500800BAE703685B6803F07F031370B1E7FCF746
:1050180007FDE5E7022070470020704730B583B0F0
:10502800044602681368D068516913F00F0505D16A
:1050380013F0200F02D010F0200F19D12DB111F06C
:10504800010119D110F4907F16D1216B012975D077
:1050580013F0800F03D010F0800F40F0D78013F0CA
:10506800400F03D010F0400F40F0D48003B030BDA3
:105078002046FFF769FFF9E713F0010F06D010F497
:10508800807F03D0226C42F00102226413F0040FE7
:1050980004D019B1226C42F00202226413F0020F0C
:1050A80004D019B1226C42F00402226413F0080FF4
:1050B80007D010F0200F00D119B1226C42F008027D
:1050C8002264226C002AD1D013F0200F02D010F0F5
:1050D800200F21D123685B6903F04003226C12F092
:1050E800080F00D123B32046FFF7FAFC23685A695A
:1050F80012F0400F18D05A6922F040025A61A36B8F
:1051080073B1464A5A63A06BFEF74EF80028ADD03B
:10511800A06B436B9847A9E72046FFF715FFD9E72F
:105128002046FFF7DBFEA1E72046FFF7D7FE9DE705
:105138002046FFF7D3FE0023236497E713F0100FF0
:1051480086D010F0100F83D00023019313680193C9
:1051580053680193019B536913F0400F32D0A16B40
:105168000B685B689BB2002B80D0A08D98427FF6BD
:105178007DAFE3858B69202B08D1A18DE38D9BB290
:10518800C91A89B22046FFF7DEFE6FE7D36823F419
:105198008073D3602268536923F001035361226846
:1051A800536923F040035361202384F83E300023E1
:1051B80023632268D36823F01003D360A06BFDF744
:1051C800D1FFDAE7A18DE38D9BB2C91A89B2E38DCD
:1051D8009BB2002B3FF44AAF00293FF447AFD36896
:1051E80023F49073D3602268536923F00103536159
:1051F800202384F83E30002323632268D36823F0F9
:105208001003D3602046FFF79EFE2FE72046FFF7E6
:1052180080FC2BE72046FFF74DFE27E73F4F0008AD
:1052280008B5406A036B012B02D0FFF756FE08BD94
:10523800818D4908FFF787FEF9E708B50346406AFC
:105248001B681B6813F0200F16D10023C385026862
:10525800D36823F48073D3600268536923F0010391
:1052680053610268536923F040035361202380F897
:105278003E30036B012B05D0036B012B08D0FCF7E4
:10528800CFFB08BD0268D36823F01003D360F3E7AF
:10529800818DFFF758FEF4E7034681628285C28557
:1052A80000201864222283F83E2083F83C00196805
:1052B800CA6842F48072CA6019684A6942F00102F9
:1052C8004A611A68D36843F02003D360704708B571
:1052D80090F83E30DBB2202B0DD171B17AB190F845
:1052E8003C30012B0DD0012380F83C3000230363B0
:1052F800FFF7D2FF00E0022008BD0120FCE70120F3
:10530800FAE70220F8E7000030B583B004461346F8
:105318008162828500250564222280F83E20826B06
:1053280014489062A26B1448D062A26B13481063B1
:10533800A26B556320680A46011DA06BFDF7D8FED5
:10534800019523681A6801925A680192019A84F8B3
:105358003C50DA6842F48072DA602268536943F09C
:10536800010353612268536943F04003536128469F
:1053780003B030BD4352000829520008E74E000828
:1053880008B590F83E30DBB2202B0DD171B17AB15F
:1053980090F83C30012B0DD0012380F83C300023DD
:1053A8000363FFF7B1FF00E0022008BD0120FCE71E
:1053B8000120FAE70220F8E7014B1868704700BFA0
:1053C8001000002070B50D4E0D4D761BB61006D09E
:1053D800002455F8043B01349847A642F9D1094EF8
:1053E800094D06F065F8761BB61006D0002455F86E
:1053F800043B01349847A642F9D170BD60B9000852
:1054080060B9000868B9000860B90008830730B5BA
:1054180048D0541E002A3FD00346CAB201E0013CDE
:105428003AD303F8012B9D07F9D1032C2DD9CDB21E
:1054380045EA05250F2C45EA054536D9A4F11002A1
:1054480022F00F0C03F1200EE6444FEA121C03F180
:10545800100242E9045542E9025510327245F8D16A
:105468000CF1010214F00C0F03EB021204F00F0C04
:1054780013D0ACF1040323F003030433134442F8BC
:10548800045B9342FBD10CF003042CB1CAB21C4458
:1054980003F8012B9C42FBD130BD64461346002C17
:1054A800F4D1F9E703461446BFE71A46A446E0E7F5
:1054B8000FB400B5074A83B004AB106853F8042B47
:1054C8008168019300F08CF803B05DF804EB04B038
:1054D800704700BF1000002030B5054689B0084667
:1054E8000C4600F04FF801210223214A0494069249
:1054F800AA6B04AC0590084401940791AC68029328
:10550800039022B3636E13F0010FB4F90C309AB212
:1055180001D1980525D5910406D4626E43F4005351
:1055280022F40052A3816266284601AA214603F0AC
:105538007BF9636E002814BF4FF0FF350A25DA07A0
:1055480002D4A3899B0506D5284609B030BD284654
:1055580002F072FFD6E7A06D03F00CFB284609B0F5
:1055680030BDA06D03F004FBB4F90C309AB2D2E759
:1055780048B50008024B01461868FFF7ADBF00BFE9
:105588001000002020F0030110F00300C0F100001B
:1055980051F8043B00F1040C4FEACC0C6FF0000208
:1055A8001CBF22FA0CF213434FF0010C4CEA0C2CEE
:1055B8004CEA0C4CA3EB0C0222EA030212EACC12CE
:1055C80004BF51F8043B0430F4D0C2F1000102EAF0
:1055D8000102B2FA82F2C2F11F0200EBD200704758
:1055E8002DE9F04FD5B01C46914607910546099024
:1055F80003F0B6FA02680E9410461792FFF7C2FF3E
:1056080016901DB1AB6B002B00F01D82079A536EEC
:10561800DD0740F12D81B2F90C2091B28F0409D435
:10562800079B42F400529A8191B21A465B6E23F4AA
:10563800005353660E0740F1C080079B1B69002B7F
:1056480000F0BB8001F01A030A2B00F0C48000248C
:105658002BAB224698464D46CDE92944289312940F
:1056680000230024CDE914342B78CDE91922CDE9A3
:105678001B2218920B92002B00F08F81AA4604E09F
:105688001AF8013F002B00F0BB80252BF8D1BAEBAC
:10569800050640F0B9809AF80030002B00F07D81B3
:1056A80000234FF0FF324FF02B0920241F469AF8B1
:1056B800016008920AF1010A8DF883300A930AF111
:1056C800010AA6F120035A2B00F2E180DFE813F06B
:1056D8000503DF00DF000003DF00DF00DF00DE027C
:1056E800DF00DF006A006E02DF0055027802DF008B
:1056F80073025B005B005B005B005B005B005B00B0
:105708005B005B00DF00DF00DF00DF00DF00DF00A1
:10571800DF006C01DF00EA01C4016C016C016C015F
:10572800DF00DF00DF00DF00D002DF00DF00230240
:10573800DF00DF00DF00F801DF009202DF00DF009A
:105748008707DF00DF00DF00DF00DF00DF00DF00AA
:10575800DF006C01DF00EA01C6016C016C016C011D
:10576800B602C601BF01DF00C302DF005A022502EC
:10577800A402BF01DF00F80172008407DF00DF0028
:105788006507DF0072000022A6F130031AF8016BEA
:1057980002EB820203EB4202A6F13003092BF5D992
:1057A8000A928EE70E9B53F8042B002A0A920E9356
:1057B800C0F2E0819AF8006081E7079D09982946C0
:1057C80001F0FCFC002841F04D83A98901F01A037F
:1057D8000A2B7FF43CAF079AB2F90E30002BFFF684
:1057E80036AF536ED80702D4890541F14881234664
:1057F8004A460799099855B0BDE8F04F01F09CBC9E
:10580800BAEB050600F0C9802A9BC8E90056334464
:105818002A93299B0133072B299305DC08F10808F3
:105828000B9B33440B9336E70799099828AA04F091
:1058380021FC80B90DF1AC08F2E70799099828AA6C
:1058480004F018FC002800F099800D9B1BB1194644
:10585800099802F0E9FE079A536ED90740F1E880EB
:1058680093895B0601F10A830B9855B0BDE8F08F68
:10587800079BB3F90C20900591B23FF5CFAE1D46BA
:10588800986D03F075F9B5F90C2091B2C6E6002EB3
:1058980000F08380012300228DF8EC6006933BAD75
:1058A8008DF883200C930D9208920F921392109208
:1058B80017F0020302D006990231069117F0840B03
:1058C80007D10A990698A1EB0009B9F1000F00F376
:1058D80090832A9C82B10122C8F80420299A0134B5
:1058E80001320DF18301072A2A942992C8F8001081
:1058F80000F3D88308F108087BB10223C8F8043004
:10590800299B0234013321AA072B2A942993C8F82A
:10591800002000F3D58308F10808BBF1800F00F0E0
:105928008882089B0C9AA3EB020BBBF1000F00F3D3
:10593800CB82FB0500F11F820C9BC8F800501C4469
:10594800C8F80430299B2A940133072B299300F3C4
:10595800448308F10808780705D50A9B069A9D1A1A
:10596800002D00F3B983DDE90A2306998A42ACBF0A
:105978009B185B180B93002C7FF45FAF00232993CF
:105988000D9B1BB10D99099802F04EFE55460DF17D
:10599800AC082B78002B7FF471AE2A9B002B41F0CA
:1059A80010820023299356E70E9B073323F0070242
:1059B800F2E80234CDE91434DDE9143424F000446B
:1059C800994618460E9221464FF0FF32AB4BFBF733
:1059D80029FA002840F01885484621464FF0FF3242
:1059E800A64BFBF701FA002840F00E85DDE914010B
:1059F80000220023FBF7EEF9002840F065879DF8A8
:105A08008320002103209E4D9E4B27F080070D9197
:105A18000690472EC8BF1D4608910C900F91139110
:105A28001091002A3FF444AF069B013306933FE7E9
:105A3800079B9B899A053FF514AF079CA06D03F05F
:105A480099F8A3890DE7099802F0F6FCDEE59AF8C3
:105A5800006047F0200732E647F01007BA060E9BB1
:105A680040F16E84073323F007031A465B6852F847
:105A7800084B99460E92002BC0F26F84089B0133A5
:105A880000F0FB8254EA090327F0800B40F0F6820D
:105A9800089B002B40F0F7825F46002354AD089323
:105AA8000C933DE1012000220E9B069053F8041B45
:105AB8003BAD8DF883208DF8EC100E930C90F2E638
:105AC8004FF000090E9C089B54F8045B8DF88390F6
